{
  "contractName": "MyWallet",
  "abi": [
    {
      "anonymous": false,
      "inputs": [
        {
          "indexed": true,
          "internalType": "address",
          "name": "_from",
          "type": "address"
        },
        {
          "indexed": true,
          "internalType": "address",
          "name": "_to",
          "type": "address"
        },
        {
          "indexed": false,
          "internalType": "string",
          "name": "_reason",
          "type": "string"
        }
      ],
      "name": "ProposalReceived",
      "type": "event"
    },
    {
      "anonymous": false,
      "inputs": [
        {
          "indexed": false,
          "internalType": "address",
          "name": "_from",
          "type": "address"
        },
        {
          "indexed": false,
          "internalType": "uint256",
          "name": "_amount",
          "type": "uint256"
        }
      ],
      "name": "ReceivedFunds",
      "type": "event"
    },
    {
      "payable": true,
      "stateMutability": "payable",
      "type": "fallback"
    },
    {
      "constant": false,
      "inputs": [],
      "name": "kill",
      "outputs": [],
      "payable": false,
      "stateMutability": "nonpayable",
      "type": "function"
    },
    {
      "constant": false,
      "inputs": [
        {
          "internalType": "address payable",
          "name": "_to",
          "type": "address"
        },
        {
          "internalType": "uint256",
          "name": "_value",
          "type": "uint256"
        },
        {
          "internalType": "string",
          "name": "_reason",
          "type": "string"
        }
      ],
      "name": "spendMoneyOn",
      "outputs": [
        {
          "internalType": "uint256",
          "name": "",
          "type": "uint256"
        }
      ],
      "payable": false,
      "stateMutability": "nonpayable",
      "type": "function"
    },
    {
      "constant": false,
      "inputs": [
        {
          "internalType": "uint256",
          "name": "proposal_id",
          "type": "uint256"
        }
      ],
      "name": "confirmProposal",
      "outputs": [
        {
          "internalType": "bool",
          "name": "",
          "type": "bool"
        }
      ],
      "payable": false,
      "stateMutability": "nonpayable",
      "type": "function"
    }
  ],
  "bytecode": "0x6080604052336000806101000a81548173ffffffffffffffffffffffffffffffffffffffff021916908373ffffffffffffffffffffffffffffffffffffffff16021790555061088d806100536000396000f3fe6080604052600436106100345760003560e01c8063192997e7146100ab57806341c0e1b5146101b1578063f4a4f4d2146101c8575b60003411156100a9577f5741979df5f3e491501da74d3b0a83dd2496ab1f34929865b3e190a8ad75859a3334604051808373ffffffffffffffffffffffffffffffffffffffff1673ffffffffffffffffffffffffffffffffffffffff1681526020018281526020019250505060405180910390a15b005b3480156100b757600080fd5b5061019b600480360360608110156100ce57600080fd5b81019080803573ffffffffffffffffffffffffffffffffffffffff169060200190929190803590602001909291908035906020019064010000000081111561011557600080fd5b82018360208201111561012757600080fd5b8035906020019184600183028401116401000000008311171561014957600080fd5b91908080601f016020809104026020016040519081016040528093929190818152602001838380828437600081840152601f19601f82011690508083019250505050505050919291929050505061021b565b6040518082815260200191505060405180910390f35b3480156101bd57600080fd5b506101c66104ef565b005b3480156101d457600080fd5b50610201600480360360208110156101eb57600080fd5b8101908080359060200190929190505050610580565b604051808215151515815260200191505060405180910390f35b60003373ffffffffffffffffffffffffffffffffffffffff166000809054906101000a900473ffffffffffffffffffffffffffffffffffffffff1673ffffffffffffffffffffffffffffffffffffffff1614156102be578373ffffffffffffffffffffffffffffffffffffffff166108fc849081150290604051600060405180830381858888f193505050501580156102b8573d6000803e3d6000fd5b506104e7565b6001600081548092919060010191905055506040518060a001604052803373ffffffffffffffffffffffffffffffffffffffff1681526020018573ffffffffffffffffffffffffffffffffffffffff1681526020018481526020018381526020016000151581525060026000600154815260200190815260200160002060008201518160000160006101000a81548173ffffffffffffffffffffffffffffffffffffffff021916908373ffffffffffffffffffffffffffffffffffffffff16021790555060208201518160010160006101000a81548173ffffffffffffffffffffffffffffffffffffffff021916908373ffffffffffffffffffffffffffffffffffffffff1602179055506040820151816002015560608201518160030190805190602001906103ef9291906107b3565b5060808201518160040160006101000a81548160ff0219169083151502179055509050508373ffffffffffffffffffffffffffffffffffffffff163373ffffffffffffffffffffffffffffffffffffffff167f35e2f9cb62368d0df7a4ac2ead59dddf8a70684a6aa940ba429606dd40a5062f846040518080602001828103825283818151815260200191508051906020019080838360005b838110156104a3578082015181840152602081019050610488565b50505050905090810190601f1680156104d05780820380516001836020036101000a031916815260200191505b509250505060405180910390a360015490506104e8565b5b9392505050565b6000809054906101000a900473ffffffffffffffffffffffffffffffffffffffff1673ffffffffffffffffffffffffffffffffffffffff163373ffffffffffffffffffffffffffffffffffffffff16141561057e576000809054906101000a900473ffffffffffffffffffffffffffffffffffffffff1673ffffffffffffffffffffffffffffffffffffffff16ff5b565b60008060009054906101000a900473ffffffffffffffffffffffffffffffffffffffff1673ffffffffffffffffffffffffffffffffffffffff163373ffffffffffffffffffffffffffffffffffffffff1614610644576040517f08c379a00000000000000000000000000000000000000000000000000000000081526004018080602001828103825260178152602001807f4f776e6572206973206e6f74206d73672e73656e64657200000000000000000081525060200191505060405180910390fd5b600073ffffffffffffffffffffffffffffffffffffffff166002600084815260200190815260200160002060000160009054906101000a900473ffffffffffffffffffffffffffffffffffffffff1673ffffffffffffffffffffffffffffffffffffffff16146107a957600115156002600084815260200190815260200160002060040160009054906101000a900460ff161515146107a85760016002600084815260200190815260200160002060040160006101000a81548160ff0219169083151502179055506002600083815260200190815260200160002060010160009054906101000a900473ffffffffffffffffffffffffffffffffffffffff1673ffffffffffffffffffffffffffffffffffffffff166108fc60026000858152602001908152602001600020600201549081150290604051600060405180830381858888f1935050505015801561079e573d6000803e3d6000fd5b50600190506107ae565b5b600090505b919050565b828054600181600116156101000203166002900490600052602060002090601f016020900481019282601f106107f457805160ff1916838001178555610822565b82800160010185558215610822579182015b82811115610821578251825591602001919060010190610806565b5b50905061082f9190610833565b5090565b61085591905b80821115610851576000816000905550600101610839565b5090565b9056fea265627a7a7231582098b14161e8da980d8503d85e695157c95877768a3b2e3b7b8ea41b3caa99937764736f6c634300050c0032",
  "source": "pragma solidity ^0.5.0;\n\nimport \"./mortal.sol\";\nimport \"./owned.sol\";\n\ncontract MyWallet is mortal {\n    event ReceivedFunds(address _from, uint256 _amount);\n    event ProposalReceived(address indexed _from, address indexed _to, string _reason);\n\n    struct Proposal {\n        address _from;\n        address payable _to;\n        uint256 _value;\n        string _reason;\n        bool sent;\n    }\n\n    uint proposal_counter;\n\n    mapping(uint => Proposal) m_proposals;\n\n    function spendMoneyOn(address payable _to, uint256 _value, string memory _reason) public returns (uint256) {\n        if(owner == msg.sender) {\n            /**\n             * Update From Solidtiy 0.4.13, where .transfer was introduced!\n             * Checkout https://vomtom.at/exception-handling-in-solidity/\n             * .send() as shown in the video is depricated.\n             **/\n            _to.transfer(_value);\n        } else {\n            proposal_counter++;\n            m_proposals[proposal_counter] = Proposal(msg.sender, _to, _value, _reason, false);\n            emit ProposalReceived(msg.sender, _to, _reason);\n            return proposal_counter;\n        }\n    }\n\n    function confirmProposal(uint proposal_id) public onlyowner returns (bool) {\n        if(m_proposals[proposal_id]._from != address(0)) {\n            if(m_proposals[proposal_id].sent != true) {\n                m_proposals[proposal_id].sent = true;\n                m_proposals[proposal_id]._to.transfer(m_proposals[proposal_id]._value);\n                return true;\n            }\n        }\n        return false;\n    }\n\n    function() external payable {\n        if(msg.value > 0) {\n            emit ReceivedFunds(msg.sender, msg.value);\n        }\n    }\n}",
  "sourcePath": "/Users/aleccharbonneau/Desktop/BlockChain/sol_wallet/contracts/MyWallet.sol",
  "compiler": {
    "name": "solc",
    "version": "0.5.12+commit.7709ece9.Emscripten.clang"
  },
  "schemaVersion": "3.0.19",
  "updatedAt": "2019-12-17T02:13:10.834Z",
  "networkType": "ethereum",
  "devdoc": {
    "methods": {}
  },
  "userdoc": {
    "methods": {}
  }
}